:020000040800F2
:1000000078500020850200087B1E0008871C00082D
:10001000791E0008B5030008112400080000000044
:10002000000000000000000000000000C501000802
:100030001904000800000000210200080120000847
:100040009F0200089F0200089F0200089F0200080C
:100050009F0200089F0200089F0200089F020008FC
:100060009F0200089F0200089F0200089F020008EC
:100070009F0200089F0200089F0200089F020008DC
:100080009F0200089F0200089F0200089F020008CC
:10009000B90300089F0200089F0200089F020008A1
:1000A0009F020008CD2000089F0200089F02000860
:1000B0009F0200089F0200089F0200089F0200089C
:1000C0009F0200089F0200089F0200089F0200088C
:1000D0009F020008052400089F0200089F020008F4
:1000E0009F0200089F0200089F0200089F0200086C
:1000F0009F0200089F0200089F0200089F0200085C
:100100009F0200089F0200089F0200089F0200084B
:100110009F0200089F0200089F0200089F0200083B
:100120009F0200089F0200089F0200089F0200082B
:100130009F0200089F0200089F0200089F0200081B
:10014000C50300089F0200089F0200089F020008E4
:100150009F0200089F0200089F0200089F020008FB
:100160009F0200089F0200089F0200089F020008EB
:100170009F0200089F0200089F0200080000000084
:100180009F0200089F0200089F0200089F020008CB
:100190009F0200089F0200089F0200089F020008BB
:1001A00000000000000000009F020008DFF810D0EF
:1001B00000F0EEF800480047BD260008AFF30080CD
:1001C000785000202C4B19680868B0E8F04F80F395
:1001D0000988BFF36F8F4FF0000080F311887047DC
:1001E0000000000008480068006880F308884FF0AD
:1001F000000080F3148862B661B6BFF34F8FBFF37F
:100200006F8F00DF00BF00BF08ED00E0DFF80C00DB
:10021000016841F470010160704700BF88ED00E0A3
:10022000EFF30980BFF36F8F134B1A681EF0100FA6
:1002300008BF20ED108A20E9F04F106009B44FF09C
:10024000500080F31188BFF34F8FBFF36F8F03F01F
:1002500093F94FF0000080F3118809BC1968086811
:10026000B0E8F04F1EF0100F08BFB0EC108A80F31A
:100270000988BFF36F8F704728000020EFF30580D7
:10028000704700000648804706480047FEE7FEE743
:10029000FEE7FEE7FEE7FEE7FEE7FEE7FEE7FEE736
:1002A000BD200008AD0100082DE9F05F05460020E3
:1002B00092469B4688460646814640241BE02846D7
:1002C00041464746224600F053F853465A46C01A64
:1002D000914110D311461846224600F03AF82D1AE3
:1002E00067EB01084F4622460120002100F031F85B
:1002F00017EB00094E41201EA4F10104DFDC484643
:1003000031462A464346BDE8F09F40EA01039B0779
:1003100003D009E008C9121F08C0042AFAD203E07A
:1003200011F8013B00F8013B521EF9D27047D2B2DE
:1003300001E000F8012B491EFBD270470022F6E7CE
:1003400010B513460A4604461946FFF7F0FF20464B
:1003500010BD202A04DB203A00FA02F10020704789
:100360009140C2F1200320FA03F3194390407047F3
:10037000202A04DB203A21FA02F00021704721FAFA
:1003800002F3D040C2F12002914008431946704761
:10039000064C074D06E0E06840F0010394E80700D2
:1003A00098471034AC42F6D3FFF704FF9841000899
:1003B000B8410008FEE70000014800F0ACB90000B9
:1003C000DC000020014800F0A6B900000401002074
:1003D00038B50E4C4FF4007525600025A560E5602A
:1003E000082525610A4C050A25706070080AA0706E
:1003F000E170100A20716271180AA071E3716B46F6
:1004000022460249034800F01CF838BD404B00204A
:10041000B1000020DC000020704772B6FEE790F8C3
:100420002020012A07D0022A05D0416A41F4802108
:10043000416201207047006842690A43426100201E
:100440007047F0B590F820500468A468012D05D0DD
:10045000022D03D0416A41F480215DE014F0406F29
:1004600001D1E50055D5C4F30164022C03D9416ADA
:1004700041F4000150E00125A5401D608D684FF456
:10048000C0739DB1CE6835434E6845EAC60506681F
:1004900003EB0417F5514FF4C275076805EB04151B
:1004A0000E697E51097D012905D009E00E88CD68CD
:1004B00045EA4655EBE701684E5946F480764E51C1
:1004C0001179D579567941EA056195792D0445EA86
:1004D000062529434FF4C676056806EB0416A95194
:1004E0001178D57841EA0561957852782D0445EA6E
:1004F000022211434FF4C475026805EB04155151F3
:10050000006803EB0411425842F0010242500020FF
:10051000F0BD416A41F4001141620120F0BD0000CC
:1005200010B590F82020012A07D0022A05D0416A90
:1005300041F480214162012010BD3B48D0F80022E7
:1005400042F00102C0F80022D0F8002222F47C52CE
:10055000C0F80022D0F800224B6A42EA0322C0F819
:1005600000220A7D02F01F0301229A40D0F81C32BB
:100570009343C0F81C32CB69B3B9D0F80C32934323
:10058000C0F80C328C894B6864F31F434C6900EB54
:10059000C404C4F840320C890B6864F31F434C69EF
:1005A00000EBC404C4F84432CB69012B16D1D0F857
:1005B0000C321343C0F80C320C884B6864F31F43B1
:1005C0004C6900EBC404C4F840320C89CB6864F376
:1005D0001F434C6900EBC404C4F844328B69002B00
:1005E000D0F804320ED01343C0F804320B69002B4C
:1005F000D0F8143208D01343C0F81432096A012924
:1006000004D008E09343EFE79343F5E7D0F81C12DA
:100610001143C0F81C12D0F8001221F00101C0F8FB
:100620000012002010BD000000640040704730B58B
:1006300090F82040012C05D0022C03D0416A41F4EF
:1006400080215DE00468002955D02469A40754D0B6
:100650004FF4D874056804EB01142D5915F0040506
:10066000956005682D594ED0ED08556005682C59E8
:1006700004F00204D4604FF4DA74056804EB01144A
:100680002D5905F00F05156105682D59C5F307258E
:10069000956105682C59240C54614FF4DC72046890
:1006A00002EB0112A4581C700468A458240A5C7060
:1006B0000468A458240C9C700468A258120EDA70C6
:1006C0004FF4DE72046802EB0112A4581C71046836
:1006D000A458240A5C710468A458240C9C71046812
:1006E000A258120EDA71006881B1016941F020014F
:1006F0000161002030BDE468A8E7416A41F40011BF
:100700004162012030BD6D0D1560AFE7C16841F059
:100710002001C160EDE72DE9F05F05460068002487
:100720004669D0F804908768D0F80CB0D0F810A0D3
:10073000D0F81880F10748D0F90714D00121816062
:10074000B80703D5284600F050FA0CE0780702D528
:100750004FF4006407E0380702D54FF4805402E0FC
:10076000284600F041FAF80516D529684FF4807044
:100770008860B80503D5284600F039FA0CE0780502
:1007800002D544F4005407E0380502D544F480440F
:1007900002E0284600F02AFAF80316D529684FF43B
:1007A00080308860B80303D5284600F022FA0CE0B8
:1007B000780302D544F4004407E0380302D544F43A
:1007C000803402E0284600F013FA300707D55FEACC
:1007D000CB6004D52968102044F40074C860700709
:1007E0004FF0080707D55FEA0B7004D52868C7608B
:1007F000284600F099F9B00706D52868C068800738
:1008000002D0284600F092F9700607D55FEACA6068
:1008100004D52968102044F480640861B00607D527
:100820005FEA0A7004D528680761284600F0ACF931
:10083000F00606D528680069800702D0284600F037
:10084000A4F9B00308D55FEAC96005D5296810206E
:100850004860284600F09AF9F00307D55FEA09706E
:1008600004D528684760284600F0C4F9300446D50E
:100870005FEA497040D5F00504D55FEAC87001D041
:1008800044F00104B00504D55FEA887001D544F056
:100890000204700504D55FEA487001D544F00404F1
:1008A000300529D518F0700F26D008F070004028C8
:1008B00015D006DC102809D020280AD0302816D1FF
:1008C0000AE050280ED0602811D10EE044F0080450
:1008D0000DE044F010040AE044F0200407E044F086
:1008E000400404E044F0800401E044F4807428688B
:1008F000816921F070018161296804204860002C21
:1009000005D0686A204368622846FFF78FFEBDE87D
:10091000F09F70B5040003D094F8200010B104E0FB
:10092000012070BD204600F081F82068016841F088
:100930000101016000F0E2FA0546052604E000F03E
:10094000DDFA401B0A2811D820684068C007F6D09D
:100950002068016821F00201016000F0CFFA05462D
:100960000BE000F0CBFA401B0A2806D9606A40F47D
:100970000030606284F82060D2E720684068800719
:10098000EFD4207E0128206801683DD021F080014D
:100990000160607E01282068016838D021F04001A4
:1009A0000160A07E01282068016833D021F0200179
:1009B0000160E07E0128206801682ED041F010011E
:1009C0000160207F01282068016829D021F00801FA
:1009D0000160607F01282068016824D021F00401B3
:1009E0000160D4E902010843D4E904121143084329
:1009F0006168491E08432168C861002060620120C7
:100A000084F82000002070BD41F08001C0E741F073
:100A10004001C5E741F02001CAE721F01001CFE70E
:100A200041F00801D4E741F00401D9E7F0B587B0FF
:100A3000044614216846FFF781FC364B3648DFF840
:100A4000D0E01968D4F800C0334A032502260927EC
:100A500010300024491CF44522D11960012907D126
:100A6000016841F000710160006800F000700590BD
:100A7000106840F0080010601068CDE9005600F0E2
:100A80000800CDE9047069462448CDE9024500F02C
:100A90000DF900220621142000F0BCFA142033E0E6
:100AA000DFF87CE0F44531D1D0F800C04CF0806C28
:100AB000C0F800C0D0F800C001290CF0806CCDF85F
:100AC00014C0196007D1016841F00071016000682D
:100AD00000F000700590106840F00200106010688F
:100AE00002AB00F0020005904FF44050CDE9000643
:100AF00083E8B00069460B4800F0D8F800220621D0
:100B0000402000F087FA402000F076FA07B0F0BDF0
:100B1000006400401400002030380240000C024005
:100B200000680040000402407047000000B58BB030
:100B300001AB03AA0021FFF77AFD0398A0F2012080
:100B400006281AD80E49C0B200EB800208700D4981
:100B500001EB420031F812300381BDF804305BBA7A
:100B600021F81230BDF8061049BA4180BDF80810CE
:100B700049BA81809DF80A1081710BB000BD000058
:100B8000A8000020E04A002070477047704700002E
:100B900070B5044690F82000012804D0606A40F443
:100BA0000020606218E0022084F8200020680168BC
:100BB00021F00101016000F0A1F905460EE000BF3F
:100BC00000F09CF9401B0A2808D9606A40F4003004
:100BD0006062052084F82000012070BD2068406814
:100BE000C007EDD1606270BD7047704770477047B5
:100BF0007047704770472DE9F0410446876D00F05B
:100C00007DF9064694F835000025022806D080209C
:100C1000606584F834500120BDE8F08120680168E7
:100C200021F0160101602068416921F080014161D5
:100C3000206C08B9A06C20B12068016821F008017F
:100C400001602068016821F0010101600CE000F002
:100C500055F9801B052807D920206065032084F8FA
:100C6000350084F83450D7E720680068C007EED11B
:100C700094F85C103F208840B860012084F835006B
:100C800084F834500020C7E790F83510022903D0CB
:100C90008021416501207047052180F835100068EA
:100CA000016821F001010160002070472DE9F84F33
:100CB000DFF8F8A1002201240AF1040B03254FF00C
:100CC0000F090BF1040E00BF0B6804FA02F6334063
:100CD000B34270D10F7907F00307012F01D0022F23
:100CE00016D187684FEA420805FA08FC27EA0C0784
:100CF000D1F80CC00CFA08FC4CEA070CC0F808C08C
:100D00004768B7430E79C6F3001696403E434660E7
:100D10000E79F643B6070AD0C7684FEA420C05FAC7
:100D20000CF6B7438E6806FA0CF63E43C6600E79A1
:100D300006F00306022E10D1D60800EB8608D8F87C
:100D4000206057074FEAD76C09FA0CF7BE430F69CA
:100D500007FA0CF73743C8F8207006684FEA420CD0
:100D600005FA0CF7BE430F7907F0030707FA0CF7F3
:100D7000374307604E6816F4403F1CD04C4E37682E
:100D800047F480473760366822F0030706F4804650
:100D90000096484E07EB060CDCF8086897073F0FF3
:100DA00009FA07F826EA0806DFF80C81404503D166
:100DB0004FF0000841E072E0DFF80081404502D1C9
:100DC0004FF0010839E0DFF8F880404502D14FF0DC
:100DD000020832E0DFF8EC80404502D14FF0030812
:100DE0002BE0DFF8E480404502D14FF0040824E016
:100DF000DFF8D880404502D14FF005081DE0DFF84C
:100E0000D080404502D14FF0060816E0DFF8C480DC
:100E1000404502D14FF007080FE0DFF8BC804045A5
:100E200002D14FF0080808E0DFF8B080404502D159
:100E30004FF0090801E04FF00A0808FA07F848EAFD
:100E40000608CCF80888DAF800605746D1F804C0E4
:100E50009E435FEACC3C00D51E433E60DBF8006059
:100E60005F46D1F804C09E435FEA8C3C00D51E4328
:100E70003E60DEF800607746D1F804C09E435FEA2A
:100E8000CC2C00D51E433E60084F0C373E68D1F88D
:100E900004C09E435FEA8C2C00D51E433E60521C6A
:100EA000102AFFF411AFBDE8F88F0000003C0140AC
:100EB000443802400030014000000240000402407B
:100EC00000080240000C02400010024000140240E2
:100ED00000180240001C0240002002400024024092
:100EE000426921EA02030A4043EA024181617047F4
:100EF0000AB1816170470904FBE70000014880687E
:100F000070470000180000200248816802781144F0
:100F100081607047180000200B4810B5016841F44B
:100F200000710160016841F480610160016841F471
:100F300080710160032000F08DF80F2000F006F8AA
:100F400000F03EF8002010BD003C024010B5014604
:100F500088B00022192000F05DF8192000F04CF84C
:100F600013480024016841F001010160006805A9EF
:100F700000F001000690684600F050F900F07EF99C
:100F80000C494000B0FBF1F10C480B4A491E0260CD
:100F900040F2E732C0E90324C0E9011400F068FB25
:100FA00010B1012008B010BD044800F08FFBF9E734
:100FB0004438024040420F0000000140C4010020BC
:100FC0000C4882B0016841F480410160006800F47F
:100FD000804000900748001F016841F08051016087
:100FE0000068002200F0805000900F21901E02B097
:100FF00000F010B844380240002809DB00F01F025E
:10100000012191404009800000F1E020C0F800116A
:1010100070470000F0B40E4B1B680C46C3F302236C
:10102000C3F10705042D00D90425191D072901D294
:10103000002300E0DB1E012606FA05F1491E2140CF
:1010400099409E40761E16403143F0BC01F0E1B954
:101050000CED00E0064900F0070208684FF6FF03B8
:10106000184040EA0220034A10430860704700001D
:101070000CED00E00000FA052DE9F843174801687F
:1010800041F0805101600068154F00F0805001264A
:1010900000903E64FFF732FF05464FF47A78114C1A
:1010A00005E000BFFFF72AFF401B40450DD86068F0
:1010B000C003F7D57E64FFF721FF0546464607E0EB
:1010C000FFF71CFF401BB04202D90320BDE8F883A4
:1010D00060688003F4D50020F8E700004038024043
:1010E00000000E42007000402DE9F0470E4605005A
:1010F00065D0DFF81481D8F80000F7B200F00F00D7
:10110000B04207D288F80070D8F8000000F00F0055
:10111000B04254D128683D4C810712D5400703D511
:10112000206840F4E05020602878000703D520684C
:1011300040F4604020602068A96820F0F000084377
:1011400020602878C0072DD0304968680839012808
:1011500012D0022813D0032811D00968890700296A
:101160002DDA216821F0030101432160FFF7C6FE5B
:10117000814641F2883A0EE009688903EFE7096881
:101180008901ECE7FFF7BAFEA0EB0901514502D94E
:101190000320BDE8F0872068696800F00C00B0EB20
:1011A000810FEFD1D8F80010404601F00F01B14295
:1011B00007D90770006800F00F00B04201D001208D
:1011C000E7E72878400705D52068E96820F4E05073
:1011D000084320602878000706D52068296920F494
:1011E000604040EAC100206000F058F82168084AD9
:1011F000C1F30311515CC840064908600648006805
:10120000FFF7A4FE0020C4E7003C0240083802407B
:1012100034410008240000201C0000200F2202603E
:101220000C4A136803F003034360136803F0F003F0
:101230008360136803F4E053C36012684FF4E05313
:1012400003EAD20202610448006800F00F0008605F
:101250007047000008380240003C0240044805493D
:1012600000680968044AC1F38221515CC840704794
:101270002400002008380240444100080448054981
:1012800000680968044AC1F34231515CC8407047A4
:10129000240000200838024044410008154810B5D9
:1012A000006810F00C02144813D01449042A0FD01F
:1012B000082A0ED10F4C241F2268236802F03F0237
:1012C0005B0207D52068C0F38810A0FB010106E08F
:1012D000084610BD2168C1F38811A1FB000100235D
:1012E000FEF7E2FF2168C1F30141491C4900B0FB50
:1012F000F1F010BD083802400024F400001BB700D4
:101300002DE9F84F04006ED02078DFF84C93C00729
:10131000A9F104054AD009F104000168C1F3810173
:10132000012908D00068C0F3810002280AD1D9F849
:101330000000400206D52868800337D56068002881
:10134000E1D033E06068B0F5803F10D0B0F5A02F59
:10135000286810D020F480302860286820F480208D
:1013600028606068A8B1FFF7C9FD06460DE028684F
:1013700040F48030F4E740F480202860F7E700BFB5
:10138000FFF7BCFD801B642873D828688003F7D55D
:101390000CE0FFF7B3FD064605E000BFFFF7AEFD2A
:1013A000801B6428F0D828688003F7D42078DFF801
:1013B000AC8280074FF0000A3ED5A748001D0168A7
:1013C00011F00C0F08D00068C0F3810002280BD187
:1013D000D9F80000400207D42868800716D5E068D5
:1013E000012800D112E033E1E068B8B10120C8F86B
:1013F0000000FFF783FD064605E000BFFFF77EFD16
:10140000801B0228C0D828688007F7D52868216982
:1014100020F0F80040EAC10028600DE0C8F800A004
:10142000FFF76CFD064604E0FFF768FD801B02280D
:101430001FD828688007F7D42078000722D5864F68
:1014400087486169703771B101210160FFF756FD6E
:10145000064604E0FFF752FD801B022809D83868D1
:101460008007F7D50EE0C0F800A0FFF747FD06465D
:1014700005E082E0FFF742FD801B02287DD8386836
:101480008007F7D42078400768D5DFF8CCB1002773
:101490000BF13C0BDBF80000C0000BD4DBF80010B4
:1014A00041F08051CBF80010DBF80000012700F07C
:1014B000805000906B4E3068C00510D4306840F406
:1014C00080703060FFF71AFD009005E0FFF716FD11
:1014D0000099401A022850D83068C005F6D55E4EF3
:1014E000A0686C3601280FD00528306810D020F095
:1014F00001003060306820F004003060A068B8B1AE
:10150000FFF7FCFC00900FE0306840F00100F4E7CA
:1015100040F004003060F7E7FFF7F0FC0099411A53
:1015200041F28830814266D830688007F4D50EE0F9
:10153000FFF7E4FC009007E0FFF7E0FC0099411A98
:1015400041F28830814256D830688007F4D42FB1F8
:10155000DBF8001021F08051CBF80010A069C8B36F
:101560003D49091D0968C1F3810102294AD00228B9
:10157000504607D0C8F8600000E03CE0FFF7BEFC32
:1015800004463BE04746C8F86000FFF7B7FC064654
:1015900005E000BFFFF7B2FC801B02282BD82868AB
:1015A0008001F7D4D4E907010843A16A2E4A49080B
:1015B00002EB0141626A41EA8211084394F82C105F
:1015C00040EA0161C9F8001001203866FFF796FC77
:1015D000044606E03EE000BFFFF790FC001B022837
:1015E00009D828688001F7D534E000BFFFF786FCF2
:1015F000001B022802D90320BDE8F88F286880016B
:10160000F4D427E00128F7D0D9F80000E26900F40B
:10161000800191421CD1226A00F03F01914217D112
:1016200047F6C071626A0140B1EB821F10D1A26A15
:101630004FF0FF3300F4403103EB5202B1EB024FA5
:1016400006D194F82C1000F07060B0EB016F01D05F
:101650000120D1E70020CFE70438024000004742D4
:10166000800E4742007000400000FFFF7047704747
:1016700010B5040003D094F83D0010B107E001203C
:1016800010BD002084F83C00204600F01EF8022027
:1016900084F83D00211D206800F01EFD012084F823
:1016A000460084F83E0084F83F0084F8400084F847
:1016B000410084F8420084F8430084F8440084F830
:1016C000450084F83D00002010BD704790F83D10A3
:1016D000012901D001207047022180F83D100168E6
:1016E000CA6842F00102CA6000681149884214D0F9
:1016F000B0F1804F11D00F4988420ED00E49884278
:101700000BD00E49884208D00D49884205D00D49BA
:10171000884202D00C49884204D1816801F0070157
:10172000062903D0016841F00101016000207047E3
:10173000000001400004004000080040000C004090
:10174000000401400040014000180040704770B59F
:101750000446006801694FF00005C943890715D4A4
:10176000C168C943890711D4E91E016101202077AE
:10177000206880698007204602D0FFF7E7FF04E079
:1017800000F098F8204600F096F825772068016967
:10179000C943490717D4C168C943490713D46FF037
:1017A00004010161022020772068806910F4407FE5
:1017B000204602D0FFF7CAFF04E000F07BF8204685
:1017C00000F079F8257720680169C943090716D424
:1017D000C168C943090712D46FF0080101610420F0
:1017E00020772068C0698007204602D0FFF7AEFF4F
:1017F00004E000F05FF8204600F05DF825772068EF
:101800000169C943C90617D4C168C943C90613D4BD
:101810006FF010010161082020772068C06910F482
:10182000407F204602D0FFF791FF04E000F042F82D
:10183000204600F040F8257720680169C943C907B0
:1018400008D1C168C943C90704D1891E0161204676
:1018500000F032F820680169C943090609D4C1685B
:10186000C943090605D46FF0800101612046FFF7E6
:10187000FDFE20680169C943490609D4C168C9430E
:10188000490605D46FF040010161204600F01EF8C2
:1018900020680169C94389060BD4C168C943890618
:1018A00007D46FF0200101612046BDE87040FFF7CA
:1018B000DEBE70BD7047704700680349884201D1A1
:1018C000FFF722BB704700000000014070477047DF
:1018D00070470000F8B5016804460868CA684B699B
:1018E00010F00F0F4FF0000559D003F0010602F47D
:1018F0009077374365D0C10705D0D10503D5216C5A
:1019000041F001012164410705D5D90703D0216CBD
:1019100041F002012164810705D5D90703D0216C6C
:1019200041F004012164010707D502F02001314391
:1019300003D0216C41F008012164216C00293AD0C8
:10194000800604D5900602D5204600F058FC206899
:101950004069216CC0F38010090700D460B32046B1
:1019600000F026FC20684069400621D5206814302C
:1019700050E8001F21F0400140E80012002AF5D194
:10198000A06BA8B16C490165A06BFFF77DF9002839
:1019900011D0A06B016D01B0BDE8F040084783068F
:1019A0000FD593060DD52046BDE8F84000F027BCC2
:1019B0002046FFF78DFFF8BD2046FFF789FF25641D
:1019C000F8BD266B2023012E79D1C60677D5D60621
:1019D00075D50868486800904869400640D5A16BF5
:1019E000086840680004000CEAD0A28D8242E7D962
:1019F000E085C869B0F5807F2DD020680C3050E8B4
:101A0000001F21F4807140E80012002AF5D12068FF
:101A1000143050E8001F21F0010140E80012002AB4
:101A2000F5D12068143050E8001F21F0400140E853
:101A30000012002AF5D184F83E30256320680C306E
:101A400050E8001F21F0100140E80012002AF5D1F3
:101A5000A06BFFF7D0F8A08DE18D401A81B229E08C
:101A6000A08DE18D401A81B2E08D0028A8D0002918
:101A7000A6D020680C3050E8002F22F4907240E885
:101A80000026002EF5D12068143050E8002F22F0F7
:101A9000010240E80026002EF5D184F83E3025638F
:101AA00020680C3050E8002F22F0100240E800239C
:101AB000002BF5D12046FFF70AFFF8BDFFE705062A
:101AC0002BD5150629D594F83D002128F5D1A0681D
:101AD000B0F5805F01D12069B0B1206A411C21625C
:101AE000216800784860E08C401E0004000CE0840F
:101AF000E3D12068C16821F08001C1602068C1681D
:101B000041F04001C160D8E7206A0088C0F30800B6
:101B10004860206A801C2062E5E74006CDD550066B
:101B2000CBD5CA68204622F04002CA6084F83D3016
:101B300000F0A8F8C1E70000A121000870B504007A
:101B400004D094F83D00002510B106E0012070BDDE
:101B500084F83C50204600F023F8242084F83D000F
:101B60002068C16821F40051C160204600F0A8FB44
:101B70002068016921F4904101612068416921F0E8
:101B80002A0141612068C16841F40051C1602564A7
:101B9000202084F83D0084F83E00002070BD000045
:101BA00010B586B0044614216846FEF7C7FB1749F6
:101BB0002068884228D116480021026842F01002AD
:101BC0000260006800F010000590114814380268A7
:101BD00042F002020260006800F002000590C0209E
:101BE00000900220CDE9010103200390072004901A
:101BF00069460848FFF75AF8002207212520FFF719
:101C000009FA2520FFF7F8F906B010BD00100140D1
:101C1000443802400004024090F83E30202B0ED1A0
:101C200059B152B190F83C30012B08D0012380F813
:101C30003C300023036300F0C9BB01207047022041
:101C40007047000010B500680C49884214D10C4858
:101C500001780F2901D1007E38B101220849BDE881
:101C6000104001F13200FFF7D7BF0549044822397F
:101C700000F039FD1922F1E710BD0000001001400D
:101C80004E0100207047FEE70F4810B50D49016076
:101C90000321416000214FF420228160C0E903123A
:101CA0004FF400124261017641768176C176017768
:101CB0004177FEF72EFE002803D0BDE81040FEF766
:101CC000ACBB10BD00640040DC0000200D4810B526
:101CD0000B4901601021416000218160C1600161F8
:101CE0004161017641768176C17601774177FEF7D1
:101CF00010FE002803D0BDE81040FEF78EBB10BDDB
:101D0000006800400401002010B5124A002112486A
:101D100000F0B6FD114C0F4A00212060243210481B
:101D200000F0AEFD0B4A6060483200210D4800F023
:101D3000A7FD084AA0606C3200210B4800F0A0FD0E
:101D4000044AE06090320021084800F099FD2061CB
:101D500010BD0000804000089D2600080000002003
:101D6000A9240008F1250008B524000891260008E0
:101D70002DE9F04186B014216846FEF7DFFA2A48C3
:101D80000025016841F001010160016801F00101D5
:101D90000591016841F002010160016801F0020152
:101DA0000591016841F008010160016801F0080136
:101DB0000591016841F080010160016801F0800136
:101DC0000591016841F010010160016801F0100106
:101DD0000591016841F0200101600068012200F0D6
:101DE0002000124FD402059021463846FFF780F8B4
:101DF0000122DFF83C80960331464046FFF778F831
:101E000000940124694638460194CDE90245FEF765
:101E10004DFFCDE9006469464046CDE90245FEF735
:101E200045FF06B0BDE8F0813038024000100240A6
:101E3000001402400E4810B50C4901600D49416084
:101E4000002181600C22C160C0E904128161C1617E
:101E5000FFF774FE08B1FEF7E0FA05491922BDE864
:101E6000104032390248FFF7D7BE00000010014091
:101E700080010020A0860100FEE7FEE7A0B1D0EDC2
:101E8000101AC0ED111A90ED0F1A80ED101AC0ED66
:101E9000060A80ED070A30EEC00A80ED0F0A0178CD
:101EA00029B101293BD078E09FED3D0A7047D0ED84
:101EB000010A60EE801AC0ED091AD0ED0A0A90ED11
:101EC000022A42EE000A30EE410AC0ED0A0A90ED05
:101ED0000D2A80ED0E2A90ED0C2A80ED0D2A80ED62
:101EE0000C0A90ED031A21EE001A80ED0B1A90ED0A
:101EF000050AF4EEC00AF1EE10FA09DCB1EE400A70
:101F0000F4EEC00AF1EE10FA02D390ED0A0A01E0F5
:101F100080ED0A0A31EE800A30EE010A2BE070EE05
:101F2000410A90ED012A20EE822A80ED092AD0EDA7
:101F3000020A60EE800AC0ED0A0AD0ED0D2A72EEA8
:101F4000200AC0ED0E2AD0ED0C2AC0ED0D2AF0EECD
:101F5000002A01EE620A30EE210A80ED0C0A90EDB3
:101F6000031A21EE000A80ED0B0A30EE800AD0ED54
:101F7000080A30EE200A80ED080AD0ED040AB4EE1B
:101F8000E00AF1EE10FA06DCF1EE600AB4EEE00AC7
:101F9000F1EE10FA01D2C0ED080A90ED080A704780
:101FA00000000000002828D0002A26D0017092ED01
:101FB000001A80ED011A92ED011A80ED021A92EDDD
:101FC000021A80ED031A80ED040A9FED0C0AC0EDA1
:101FD000050A80ED0E0A80ED0D0A80ED0C0A80EDF9
:101FE000080A80ED0B0A80ED0A0A80ED090A80EDEF
:101FF000110A80ED100A80ED0F0A70470000000002
:1020000010B54FF0E020006901F02EFE012803D04A
:10201000BDE8104001F05CBB10BD000030B593B0CE
:1020200030216846FEF78AF914210CA8FEF786F9DC
:1020300020480025016841F080510160006800F0EF
:10204000805011901C48016841F4404101600068D3
:10205000022400F4404011900120009000040190FF
:102060008001CDE9064006200890B420CDE909049E
:1020700004200B906846FFF743F908B172B6FEE7FB
:10208000FEF7FAFF08B172B6FEE70CA90F2081E84F
:1020900031004FF4A0500F904FF480501090052164
:1020A0000CA8FFF721F8002801D072B6FEE713B0A4
:1020B00030BD000040380240007000400248016816
:1020C00041F470010160704788ED00E00148FFF7BE
:1020D0003EBB0000C4010020F0B50268254C264D2F
:1020E000264E274F274B4FF0804CA04209D0604529
:1020F00007D0A84205D0B04203D0B84201D09842E0
:1021000004D122F0700E4A6842EA0E02A0421BD0AF
:10211000604519D0A84217D0B04215D0B84213D0AC
:10212000984211D0184DA8420ED0184DA8420BD09D
:10213000174DA84208D0174DA84205D0164DA84209
:1021400002D0164DA84203D122F44075CA682A4332
:102150004D6922F080022A4302608A68C2620A68DE
:102160008262A04201D0984201D109690163012134
:102170004161F0BD00000140000400400008004043
:10218000000C0040000401400040014000440140B8
:102190000048014000180040001C004000200040A2
:1021A00010B5806B0021C185C184FFF791FB10BD84
:1021B00001680C3151E8002F22F4907241E80023AD
:1021C000002BF5D10168143151E8002F22F00102F3
:1021D00041E80023002BF5D1016B012909D10168E9
:1021E0000C3151E8002F22F0100241E80023002BAF
:1021F000F5D1202180F83E1000210163704708B519
:1022000090F83E10222901D0022008BD82684FF4C8
:1022100080539A4201D1016921B1816A9A421BD04F
:102220004AB10AE00268816A5268C2F308020A8071
:10223000816A891C08E0026972B10268526802F082
:102240007F020A70816A491C8162C18D491E09049E
:10225000090CC18503D019E002685268F1E70168F2
:10226000CA6822F02002CA600168CA6822F480723B
:10227000CA6001684A6922F001024A61202180F89F
:102280003E10016B012903D0FFF7DCFC002008BDE4
:102290000021016301680C3151E8002F22F0100287
:1022A00041E80023002BF5D101680A68D20602D567
:1022B0000A6849680091818DFFF709FBE6E7000095
:1022C00070B5044600680169E26821F44051114389
:1022D00001612169A068E26908436169114308430B
:1022E0002168CA6849F20C639A430243CA602068B5
:1022F0004169A26921F4407111434161314920686B
:10230000884202D03049884202D1FEF7B7FF01E08F
:10231000FEF7A4FFE2690023192164253226B2F5F5
:10232000004F626828D0A0FB0101930F9200FDF7D7
:10233000BBFF0146B0FBF5F06FF01802504301EB14
:10234000800006EB0010B0FBF5F000F0F002B1FBEE
:10235000F5F002EB0012B1FBF5F06FF018035843F3
:1023600001EB800006EB0010B0FBF5F000F00F0071
:1023700021681044886070BDA0FB010192185B4188
:10238000FDF792FF0146B0FBF5F00201B1FBF5F05D
:102390006FF01803584301EB800006EBC000B0FB60
:1023A000F5F000F0F80002EB4002B1FBF5F0584305
:1023B00001EB800006EBC000B0FBF5F000F0070079
:1023C000D6E70000001001400014014081628285C0
:1023D000C28500210164222280F83E2080F83C1052
:1023E0000168CA6842F48072CA6001684A6942F0B2
:1023F00001024A610068C16841F02001C16000200B
:10240000704700000148FFF765BA00008001002016
:10241000FEE70907090E002804DB00F1E02080F840
:102420000014704700F00F0000F1E02080F8141D48
:10243000704702E008C8121F08C1002AFAD170478D
:102440007047002001E001C1121F002AFBD1704734
:1024500000B58BB000200121CDE906010891009064
:102460000190029003900590049069460C48FEF795
:1024700057F80B48FEF78CFB02210948FDF7CFFF08
:102480000E200990059069460648FEF749F8054870
:10249000FEF77EFB02210348FDF7C1FF0BB000BD34
:1024A000DC0000200401002010B5012000F0ACF990
:1024B000FBE700002DED028B00259FED488ADFED44
:1024C000488A484C05EBC50004EBC000F0EE480A12
:1024D000B0EE680A444A0021FFF764FD6D1CEDB2BE
:1024E000042DEFD3002000F09DF8404D286001201E
:1024F00000F098F86860022000F094F8A8600320CB
:1025000000F090F805F1100604F1480904F1900874
:1025100004F1D807C5F80C0094ED3E0ABDEEC00AE0
:1025200010EE100A94ED2C0A03B2BDEEC00A10EEB4
:10253000100A94ED1A0A02B2BDEEC00A10EE100A9B
:1025400094ED080A01B2BDEEC00A10EE100A00B206
:10255000FDF73EFF022000F057F9B6F9000000EE4B
:10256000100A2868F8EEC00AB0F9020000EE100A5E
:102570001C48B8EEC00AFFF781FCB6F9020000EE75
:10258000100A6868F8EEC00AB0F9020000EE100AFE
:102590004846B8EEC00AFFF771FCB6F9040000EE39
:1025A000100AA868F8EEC00AB0F9020000EE100A9E
:1025B0004046B8EEC00AFFF761FCB6F9060000EE2F
:1025C000100AE868F8EEC00AB0F9020000EE100A3E
:1025D0003846B8EEC00AFFF751FC9DE70000FA4408
:1025E00000007A46584B00204C410008BC000020F7
:1025F0000A4D0B4C01F0EEFC2A886988A888531814
:10260000C61A2680561A064403446680891AA38097
:102610000844E080052000F0F7F8EBE7D400002044
:10262000CC00002000F00300024900EB800001EB29
:1026300040007047E04A002070B5144A002040F284
:10264000EE2351894FF4F97540F2E24461B19942A9
:1026500001D2032008E0A1F2EF26AE4201D8022009
:1026600002E0A14200D90120918919B1994203D217
:102670000C3070BD002070BDA1F2EF22AA4201D83B
:10268000083070BDA142FCD9001D70BD2C01002096
:1026900010B5012000F0B8F8FBE70000064D4FF43C
:1026A00000644FF4967621462846FEF719FC304622
:1026B00000F0AAF8F7E7000000100240FEF72CFC3B
:1026C000FFF7ACFCFFF754FBFFF7B4FBFFF7DCFAB6
:1026D000FFF7FCFAFFF7BCFE00F0A4F8FFF714FBCD
:1026E00000F0B2F8FEE7C27D1AB1002081F82000A8
:1026F0007047012281F820204278837842EA032241
:10270000C2F30A020A808278C378D20842EA4312EE
:10271000C2F30A024A80C2780379920942EA83022C
:10272000437942EA8322C2F30A028A80427983799A
:10273000520842EAC312C2F30A02CA808279C379FC
:10274000120942EA0312C2F30A020A81C279037A29
:10275000D20942EA4302437A42EA4322C2F30A021E
:102760004A81427A837A920842EA8312C2F30A02C9
:102770008A81827AC37A520942EAC302CA81027B01
:10278000437B42EA0322C2F30A020A82427B837B32
:10279000D20842EA4312C2F30A024A82827BC37B16
:1027A000920942EA8302037C42EA8322C2F30A02CC
:1027B0008A82027C437C520842EAC312C2F30A02B4
:1027C000CA82427C837C120942EA0312C2F30A02E3
:1027D0000A83827CC37CD20942EA4302037D42EA37
:1027E0004322C2F30A024A83027D437D920842EAF1
:1027F0008312C2F30A028A83427D807D520942EA33
:10280000C000C8830120704710B5EFF3058111B1F6
:102810006FF0050403E0002408B100F0F9FD204644
:1028200010BD0000EFF3058010B16FF00500704798
:102830000448016811B14FF0FF3070470121016079
:10284000002070477800002010B5EFF3058010B12C
:102850006FF0050010BD08480168012902D04FF053
:10286000FF3010BD054A002182F8141D02210160CD
:1028700000F036FE002010BD780000200BE000E0E4
:102880002DE9FF414FEA01034FF00005EFF3058109
:10289000039549BB40B38027182100244AB316682A
:1028A00006B1344696691EB13146761E382E02D2E4
:1028B0001679F60703D0002004B0BDE8F081566910
:1028C00006B1B708D2F808C0BCF1000F0DD0D5682A
:1028D0005C2D18D312693AB136B18DE806103A462C
:1028E000214601F096F903900DE0D6685EB91269B1
:1028F0004AB903AACDE90012BAB2214601F05CF947
:10290000012800D003950398D6E700002DE9F04197
:10291000134C0F460546E6682068001D00F044FC95
:10292000681C07D137B12168BDE8F0410D48091D89
:1029300000F08ABC20683544B5424560216805D264
:10294000A06BBDE8F041091D00F066BC606B091D7D
:1029500000F062FCA06A854200D2A562BDE8F08169
:1029600028000020FC0600202DE9F041054600F07B
:1029700077FC2D4CA068401CA06020682B4F10B144
:10298000606930B32BE02560A068012827D10026BC
:1029900006EB860007EB800000F030FC761C382E3A
:1029A000F6D3234800F02AFC2148143000F026FC1E
:1029B0001F48283000F022FC1D483C3000F01EFC6F
:1029C0001B48503000F01AFC194860631430A063B3
:1029D00005E02068E96AC06A884200D82560606A1C
:1029E000401C60626864E86A2169884200D92061FD
:1029F00000EB800007EB8000291D00F025FC00F0B3
:102A00004FFC606900280CD02068E96AC06A8842DF
:102A100007D208494FF080500860BFF34F8FBFF3D3
:102A20006F8FBDE8F0810000280000204C020020DC
:102A3000AC06002004ED00E038B500F011FC104CAD
:102A40002068C8B90F4800F0D9FB0E48143000F0D8
:102A5000D5FB0C48E060143020610A4B0020F03BAD
:102A6000009003F1500210210A2000F047FE206080
:102A700010B105A100F096FCBDE8384000F010BC94
:102A80006400002000080020546D72510000000016
:102A900030B4026C0B46002A0BD0C1681144C160EF
:102AA0008468A14201D30168C16030BC1846FDF7BB
:102AB0002CBC30BC70472DE9F041856B17460446AD
:102AC0000026026C82B1C7B1E068FDF71EFCE16828
:102AD000206C091AE1602268914202D2A168081AAA
:102AE000E060022F16D017E02068A8B9A06801F0B6
:102AF00033F906460020A0600EE06068FDF705FC93
:102B0000216C606808446060A168884204D3206832
:102B1000606001E005B16D1E6D1CA5633046BDE827
:102B2000F08110B5044690F8590058B101280CD036
:102B300002280FD0502080F31188BFF34F8FBFF3CE
:102B40006F8FFEE7206B00F0BFFB2046BDE8104012
:102B500000F0BABB10BD000010484FF4705142079E
:102B600006D0C01D0D4920F00700411AC1F5705173
:102B70000B4A00230144C2E900030839183A21F046
:102B8000070111604B600B600B1AC0E900139360E2
:102B90004FF000405360506170470000E00E00208D
:102BA00094000020144E154CA6F29C474FF080581C
:102BB000DFF84C9012E000BF00F052FBF068C568EF
:102BC000281D00F0F1FAA068401EA0606068401E59
:102BD000606000F065FB2846FFF7A3FF60680028EF
:102BE000EAD138680128F9D9C9F80080BFF34F8FBE
:102BF000BFF36F8FF2E70000E806002028000020F6
:102C000004ED00E070B51D46049C51B1C4F80020ED
:102C1000C4E90F010121204600F0A4FD84F84C50C6
:102C200070BD2460F4E700002DE9F05F8846DDE91F
:102C30000B941546834691009A460A9EA522206B66
:102C4000FDF775FB6FF00301206B01EB8501084474
:102C500020F00707780707D0502080F31188BFF3D2
:102C60004F8FBFF36F8FFEE70025B8F1000F0FD035
:102C70005FF00000221818F8001082F8341018F8DD
:102C8000001011B1401C1028F4D384F8435001E027
:102C900084F83450382E00D33726E662C4E9136531
:102CA000201D00F0B6FA04F1180000F0B2FA246119
:102CB000C6F138006462A061656584F858505246D8
:102CC0005946384600F05AFA2060B9F1000F01D099
:102CD000C9F80040BDE8F09F30B5114900E0114649
:102CE0000A688242FBD34B685C18844203D1406877
:102CF00018444860084643681C18944209D1084C9F
:102D0000183C2468A24209D052681A4442600A68FA
:102D100012680260814200D0086030BD0460F9E7AB
:102D20009400002070B5002441600B4D0061914279
:102D300006D8D11A8269914206D2011D286907E09E
:102D40009A4203D2994201D3012403E0011DE868AD
:102D500000F062FA204670BD6400002010B5044601
:102D600000F07EFAA06B28B15FF0000400F098FA42
:102D7000204610BD0124F9E730B589B03C4D6EE026
:102D80000498002806DADDE90601059A90470498C0
:102D9000002864DB069C606910B1201D00F004FA75
:102DA00003A800F0D7F8024604980A2857D2DFE8B3
:102DB00000F00505052D334A05052D3394F828004C
:102DC00040F0010084F828000599A069059B0144A2
:102DD0002046FFF7A7FF68B3216A2046884794F88A
:102DE000280040073BD5002000900598A1690023EA
:102DF00042181946204601F0B9F8D8B9502080F39E
:102E00001188BFF34F8FBFF36F8FFEE714F8280FC1
:102E100020F00100207022E094F8280040F001002A
:102E200084F828000598A06128B18118134620462F
:102E3000FFF778FF13E0502080F31188BFF34F8F26
:102E4000BFF36F8FFEE794F82800810703D4204674
:102E500000F03AFA03E020F0010084F82800002294
:102E600004A9286800F0D2FD002889D109B030BD3E
:102E7000640000202DE9FC410F46054600F074FB7C
:102E800001A800F067F80446019818B100F0DCFFD3
:102E9000BDE8FC81254EAFB130690068D0B3002792
:102EA000291B3A46306800F091FA00F0CDFF002867
:102EB000EED11F494FF080500860BFF34F8FBFF332
:102EC0006F8FE5E7A542EBD800F0BEFFF06827461C
:102ED000C068C468201D00F067F994F82800410715
:102EE00019D5A0692B4641193A462046FFF71AFF2B
:102EF000A8B100200346014600902A46204601F072
:102F000035F860B9502080F31188BFF34F8FBFF3BD
:102F10006F8FFEE707E020F0010084F82800216AA7
:102F200020468847B4E70127BAE700006400002084
:102F300004ED00E00648416B096829B1416BC9689E
:102F4000C9684968816270474FF0FF31FAE70000B5
:102F50002800002070B5054600F094FE064E044699
:102F6000B068844203D200F009F8012000E000209C
:102F700028602046B46070BD64000020F8B5194D8B
:102F800020E0C068C4680668201D00F00DF9216AC1
:102F90002046884794F82800400713D5A06930449C
:102FA000B04206D924616060211DE86800F034F960
:102FB00008E000200346014600903246204600F01B
:102FC000D5FF38B1E86801680029DAD12969C5E977
:102FD0000310F8BD502080F31188BFF34F8FBFF36B
:102FE0006F8FFEE76400002008484068401C4FF0E7
:102FF000500080F3118804D0BFF34F8FBFF36F8F61
:10300000FEE7BFF34F8FBFF36F8FFEE79C000020FA
:10301000074CE068016841B1C0680021D0F80000A9
:10302000FFF728FFFFF7A8FEF3E701210020F7E7ED
:10303000640000202DE9F041044600F011F994F9F4
:10304000455004F1240609E0606A48B1304600F0BA
:10305000C3FE08B100F00AFA6D1E6DB2002DF3DC5C
:103060004FF0FF3684F8456000F01AF900F0F8F8E8
:1030700094F9445004F1100709E0206948B138463A
:1030800000F0AAFE08B100F0F1F96D1E6DB2002D3E
:10309000F3DC84F84460BDE8F04100F001B90000C1
:1030A0002DE9F0410546002700F05EFA324E306807
:1030B00008B9FFF751FD706905424ED1C5B3083517
:1030C00068070ED005F00700C0F108000544680746
:1030D00007D0502080F31188BFF34F8FBFF36F8F5D
:1030E000FEE72DB37068854237D823481830014673
:1030F0000C6801E020460C466168A94202D22168B2
:103100000029F7D131688C4227D007682168016017
:1031100060680837411B10290FD96019420708D091
:10312000502080F31188BFF34F8FBFF36F8FFEE7FE
:1031300013E041606560FFF7CFFD61687068401A79
:103140007060B268904200D2B060706901430020A4
:10315000C4E90001F068401CF06000F075FE7807DB
:1031600007D0502080F31188BFF34F8FBFF36F8FCC
:10317000FEE73846BDE8F0817C00002010B5031F53
:103180004FF080741C601B1F21F001011960191F92
:10319000044B0B6014390A60091F6FF002024438B7
:1031A0000A6010BDE92F0008D0E9013201699A6078
:1031B000D0E901235A604A68824201D182684A609C
:1031C000002202610868401E08600868704700001D
:1031D000034B036003F15C000860802010607047BF
:1031E00028080020044B036003F15C0008604FF4E2
:1031F0008070106070470000840A002000F1080110
:103200004FF0FF32C0E90112C1600161002101608D
:10321000704700210161704730B50B685A1C02D01D
:1032200000F1080202E0026904E0224654682568C1
:103230009D42FAD953684B6099608A605160086179
:103240000168491C016030BD42684A6093688B6028
:1032500093685960916008610168491C016070477A
:10326000502080F31188BFF34F8FBFF36F8F0A494F
:103270004868401C486001280CD10848006810F0DC
:10328000FF0F07D0502080F31188BFF34F8FBFF39B
:103290006F8FFEE7704700009C00002004ED00E007
:1032A0000849486828B1401E486001D180F3118860
:1032B0007047502080F31188BFF34F8FBFF36F8F9B
:1032C000FEE700009C00002070B500282AD0164DB3
:1032D000A0F1080460686969084207D1502080F3B2
:1032E0001188BFF34F8FBFF36F8FFEE722683AB1AB
:1032F000502080F31188BFF34F8FBFF36F8FFEE72D
:103300008843606000F030F960686968084468606C
:103310002046FFF7E1FC2869401C2861BDE87040A9
:1033200000F092BD70BD00007C0000204FF0E02056
:1033300000210161816105494FF47A720968B1FB8E
:10334000F2F1491E4161072101617047240000200C
:1033500010B5FCF793FF114910280ED300F1E020BF
:1033600090F8F0030A78904207D2502080F3118839
:10337000BFF34F8FBFF36F8FFEE70948006889687E
:1033800000F4E060884207D9502080F31188BFF331
:103390004F8FBFF36F8FFEE710BD00009C00002031
:1033A0000CED00E010B5084B002200BF53F832408E
:1033B0001CB1521C082AF9D310BD43F8321003EB9C
:1033C000C201486010BD00000C02002070B5154617
:1033D0000E460446FFF744FF94F944100020491CB0
:1033E00001D184F8440094F94510491C01D184F8B6
:1033F0004500FFF755FFA06B28B92A46314604F176
:10340000240000F051F82046BDE87040FFF712BEDE
:1034100010B5020014D00F48006B38B1502080F373
:103420001188BFF34F8FBFF36F8FFEE700F09CF85A
:1034300000211046FFF76AFA00F006FD002807D1C8
:1034400005494FF080500860BFF34F8FBFF36F8F77
:1034500010BD00002800002004ED00E002490A6AC7
:103460000260C968416070472800002001490120BE
:10347000C86170472800002010B50C4650B10949BA
:1034800009681831FFF7C8FE2046BDE81040012149
:10349000FFF73CBA502080F31188BFF34F8FBFF382
:1034A0006F8FFEE72800002070B514460D4668B106
:1034B0000A4909681831FFF7C7FE0CB14FF0FF3514
:1034C00021462846BDE87040FFF720BA502080F31F
:1034D0001188BFF34F8FBFF36F8FFEE728000020E6
:1034E00030B587B00024039405AA04A903A8049466
:1034F000FFF76EFEDDE903010094CDE90110002322
:1035000015A11748059A00F084FB164D0028E862C3
:103510001FD000F0FBFC012809D0401C19D150201D
:1035200080F31188BFF34F8FBFF36F8FFEE75020FA
:1035300080F31188BFF34F8FBFF36F8F4FF0FF30D1
:10354000A86201206861EC6007B0BDE8304000F07F
:1035500045B807B030BD000049444C4500000000AC
:10356000A52B0008280000200248016B491C0163BC
:103570007047000028000020164810B5016B11B1FB
:103580000121C16110BD0021C1610169124A01E040
:10359000B9B1491E01EB810352F82330002BF7D05B
:1035A00001EB810302EB830202F1080453685B68BC
:1035B0005360A34201D15B685360DA680260016125
:1035C00010BD502080F31188BFF34F8FBFF36F8F72
:1035D000FEE70000280000204C0200201CB5374800
:1035E0000168374A914207D1502080F31188BFF318
:1035F0004F8FBFF36F8FFEE700683149491E884245
:1036000007D1502080F31188BFF34F8FBFF36F8F26
:10361000FEE72C4908780190FF20087008788DF8A3
:1036200000009DF800009DF8002000F0F00090429E
:1036300007D0502080F31188BFF34F8FBFF36F8FF7
:10364000FEE79DF80000204C00F05000207007209D
:10365000A06005E09DF8002052008DF80020401E7B
:103660009DF800201206F5D4A060032807D0502052
:1036700080F31188BFF34F8FBFF36F8FFEE74FF4D6
:103680004070A060019808700C482030016841F437
:1036900070010160016841F070410160FFF746FE72
:1036A00000206060FCF7B2FD0848016841F040412D
:1036B0000160FCF797FD00201CBD000000ED00E05C
:1036C00071C20F4100E400E09C00002034EF00E0F4
:1036D00010B5502080F31188BFF34F8FBFF36F8F69
:1036E00000F0D6FA18B104494FF08050086000206D
:1036F00080F3118810BD000004ED00E038B5049D92
:1037000018B153B1CAB181B120E0502080F31188C3
:10371000BFF34F8FBFF36F8FFEE7502080F3118808
:10372000BFF34F8FBFF36F8FFEE7502080F31188F8
:10373000BFF34F8FBFF36F8FFEE739B1502080F397
:103740001188BFF34F8FBFF36F8FFEE750241C46E5
:10375000012384F846302B460094FFF753FA2046A5
:1037600038BD000070B50D46040025D0FFF778FD88
:10377000D4E90F20216802FB0011A1600021A163A0
:10378000216861600A46D4E90F01401E00FB012157
:10379000E16021464FF0FF3001F8440F487004F11A
:1037A00010008DB1FFF72AFD04F12400FFF726FD7C
:1037B000FFF776FD012070BD502080F31188BFF324
:1037C0004F8FBFF36F8FFEE721690029F0D000F023
:1037D00003FB0028ECD004494FF080500860BFF391
:1037E0004F8FBFF36F8FE3E704ED00E02DE9FF4754
:1037F00082B01D468A464FF00008040003D0BAF19B
:10380000000F08D011E0502080F31188BFF34F8FD4
:10381000BFF36F8FFEE7206C38B1502080F3118822
:10382000BFF34F8FBFF36F8FFEE7022D0AD1E06B1E
:10383000012807D0502080F31188BFF34F8FBFF3CA
:103840006F8FFEE700F010FA3F4F4FF000094FF086
:10385000805648B9049838B1502080F31188BFF3DE
:103860004F8FBFF36F8FFEE7FFF7FAFCA06BE16BA2
:10387000884207D3022D05D00498D0B1B8F1000FCB
:103880001AD01EE02A4651462046FFF714F9616A15
:1038900019B104F1240000F09FFA20B13E60BFF39B
:1038A0004F8FBFF36F8FFFF7FBFC012006B0BDE821
:1038B000F087FFF7F5FC22E06846FFF7CFFD4FF0F9
:1038C0000108FFF7EDFCFFF74FFEFFF7C9FC94F985
:1038D0004400401C01D184F8449094F94500401CF8
:1038E00001D184F84590FFF7DBFC04A9684600F09D
:1038F00029F930B12046FFF79DFB00F0A5FA002022
:10390000D4E7FFF7ADFCA06BE16B884213D1FFF762
:10391000C7FC04F110000499FFF7AEFD2046FFF745
:1039200089FB00F091FA00289ED13E60BFF34F8FD3
:10393000BFF36F8F98E7FFF7B3FC2046FFF77AFBE2
:1039400000F082FA90E7000004ED00E02DE9F04776
:103950001F4690468946040003D0B9F1000F08D0F5
:1039600011E0502080F31188BFF34F8FBFF36F8FAA
:10397000FEE7206C38B1502080F31188BFF34F8FE1
:10398000BFF36F8FFEE7022F0AD1E06B012807D04B
:10399000502080F31188BFF34F8FBFF36F8FFEE786
:1039A000FFF7D6FC5020EFF3118680F31188BFF3A8
:1039B0004F8FBFF36F8FA06BE16B884206D3022F4E
:1039C00004D0002086F31188BDE8F08794F94550B3
:1039D000A06B3A4649462046FFF76DF8681C04D0B4
:1039E0006D1C84F845500120ECE7606A0028FAD08D
:1039F00004F1240000F0F0F90028F4D0B8F1000F31
:103A0000F1D00121C8F80010EDE700002DE9F747DB
:103A1000002683B08A46040003D0BAF1000F08D014
:103A200011E0502080F31188BFF34F8FBFF36F8FE9
:103A3000FEE7206C38B1502080F31188BFF34F8F20
:103A4000BFF36F8FFEE700F00FF9DFF8F4804FF05F
:103A500000094FF0805748B9059838B1502080F3DD
:103A60001188BFF34F8FBFF36F8FFEE7FFF7F8FBAF
:103A7000A56BC5B151462046FFF70AF86D1EA56338
:103A8000206950B104F1100000F0A6F928B1C8F87F
:103A90000070BFF34F8FBFF36F8FFFF701FC012062
:103AA00006B0BDE8F087059808B11EB106E0FFF743
:103AB000F7FB27E06846FFF7D1FC0126FFF7F0FB94
:103AC000FFF752FDFFF7CCFB94F94400401C01D1F5
:103AD00084F8449094F94500401C01D184F8459045
:103AE000FFF7DEFB05A9684600F02CF80028204609
:103AF0000AD0FFF79FFA00F0A7F92046FFF72EF94A
:103B00000028B3D00020CBE7FFF728F990B104F1EB
:103B100024000599FFF7B0FC2046FFF78BFA00F070
:103B200093F90028A2D1C8F80070BFF34F8FBFF3FC
:103B30006F8F9BE72046FFF77DFA00F085F995E748
:103B400004ED00E02DE9F0410C46050011D0C4B1B0
:103B5000FFF786FB174BDA686E682068911B471CDD
:103B600017D02F681B6A9F4219D0964217D801249C
:103B700010E0502080F31188BFF34F8FBFF36F8F99
:103B8000FEE7502080F31188BFF34F8FBFF36F8F94
:103B9000FEE70024FFF784FB2046BDE8F081884261
:103BA00005D9401A20602846FFF758FCF1E70020AD
:103BB0002060DCE7280000202DE9FF5F8346DDE977
:103BC0000E87994616468A469000FFF769FA050067
:103BD0001CD05C20FFF764FA040014D00020256399
:103BE00084F85900CDE90240CDE900874B463246C2
:103BF00051465846FFF718F82046FEF7B5FE01205B
:103C000004B0BDE8F09F2846FFF75EFB4FF0FF30A1
:103C1000F6E7F0B585B0DDE90B640A9DA6B1DCB12D
:103C20005C2700972663022684F85960002604AFBB
:103C3000CDE90246CDE90057FEF7F6FF2046FEF734
:103C400093FE049805B0F0BD502080F31188BFF3B7
:103C50004F8FBFF36F8FFEE7502080F31188BFF3C3
:103C60004F8FBFF36F8FFEE70548416919B1006BB5
:103C700018B10020704701207047022070470000F3
:103C8000280000200148C06870470000280000207C
:103C90002DE9F0412E4C0027206B28B1A069401C73
:103CA000A0613846BDE8F081E668761CE66013D175
:103CB000606B006838B1502080F31188BFF34F8FDC
:103CC000BFF36F8FFEE7606BA16B6163A063206A37
:103CD000401C2062FFF72EF9A06ADFF87880864248
:103CE00009D3606B0068A0B1606BC068C568686884
:103CF000864211D2A0622068C06A00EB800158F8A9
:103D00002100012800D90127E0690028C9D0012736
:103D1000C7E74FF0FF30EDE7281DFFF745FAA86A27
:103D200018B105F11800FFF73FFAE86A21698842E7
:103D300000D9206100EB800108EB8100291DFFF70D
:103D400083FAE86A2168C96A8842CAD30127C8E7AA
:103D5000280000204C02002070B504004FF0000144
:103D600033D01B4D2868844207D0502080F311883F
:103D7000BFF34F8FBFF36F8FFEE7206D38B1401E4A
:103D80002065E36CE26A9A421FD040B11DE05020EA
:103D900080F31188BFF34F8FBFF36F8FFEE7201DB5
:103DA000FFF702FAE06CE062C0F13800A061E06A5F
:103DB0002969884200D92861064900EB800001EB9F
:103DC0008000211DFFF740FA0121084670BD000068
:103DD000280000204C02002070B5C068C46854B1AF
:103DE00004F118000646FFF7DFF9144D286B50B1B7
:103DF0003146134815E0502080F31188BFF34F8FF0
:103E0000BFF36F8FFEE7201DFFF7CEF9E06A296947
:103E1000884200D928610B4900EB800001EB80004B
:103E2000211DFFF711FAE06A2968C96A884202D9A0
:103E30000120E86170BD002070BD00002800002056
:103E4000D40600204C0200202DE9F0472C4D002420
:103E50002746286B38B1FFF703FA286B401E28630A
:103E6000286B40B146E0502080F31188BFF34F8F9C
:103E7000BFF36F8FFEE7A968224E0120D1B3A6F5EC
:103E8000916980463068E0B1F068C46804F11800B8
:103E9000FFF78AF9201DFFF787F9E06A2969884250
:103EA00000D9286100EB800109EB8100211DFFF79B
:103EB000CBF9E06A2968C96A8842E3D3C5F81C8057
:103EC000E0E70CB1FFF736F8AC694CB14FEA0806F1
:103ED000FFF7DEFE00B1EE61641EF9D10020A8619B
:103EE000E86938B10849012738070860BFF34F8FE8
:103EF000BFF36F8FFFF7D4F93846BDE8F0870000B5
:103F000028000020D406002004ED00E010B586B0A3
:103F1000FEF792FD114C2068B8B100200390049088
:103F200005AA04A903A8FFF75DF9DDE90321022032
:103F30008DE8070000230AA10B48059AFFF769FEE8
:103F4000606010B106B0012010BD502080F31188D0
:103F5000BFF34F8FBFF36F8FFEE7000064000020B8
:103F6000546D722053766300113000082DE9FF4133
:103F70001E46134602000A9D4FF0000016D0144C56
:103F80002768002F0FD0CDE900130292062917DA17
:103F9000FFF76AFE02284FF000030FD000226946A7
:103FA0002068FFF723FC04B0BDE8F081502080F3C7
:103FB0001188BFF34F8FBFF36F8FFEE72A46EEE7FE
:103FC0000023324669463846FFF7C0FCEBE70000A5
:103FD0006400002070B528490025284C0888A0F20C
:103FE000F632A0F58060152A01D3208000E02580FC
:103FF0004FF425735A42984201DD238002E090423B
:1040000000DA22804888A0F2F636A0F58060152EEE
:1040100001D3608000E06580984201DD638002E0AA
:10402000904200DA6280C888A0F2F631A0F5806084
:10403000152901D3A08000E0A580984201DDA3806E
:1040400002E0904200DAA2802088C0EBC00020800D
:104050006088C0EBC0006080A08800EB400080005A
:10406000A080FEF7E9FAFEF7E7FA8008032802D1FC
:1040700025806580A58070BD2C010020D400002023
:10408000584100080000000000000000000000008F
:104090000000000000020000180000000000000006
:1040A000000000008C41000800000000000000003B
:1040B00000000000000000000002000018000000E6
:1040C0000000000000000000804100080000000027
:1040D00000000000000000000000000000020000DE
:1040E00018000000000000000000000070410008FF
:1040F00000000000000000000000000000000000C0
:1041000000020000080000000000000000000000A5
:1041100064410008000000000000000000000000F2
:104120000000000000020000080000000000000085
:104130000000000000000000000000000102030475
:104140000607080900000000010203040000A04067
:104150000AD7233C000000006C65645F7461736BD8
:104160000000000067696D62616C5F7461736B00D1
:10417000636861736973735F7461736B000000003F
:10418000646275735F7461736B00000063616E5FDE
:1041900072785F7461736B00B84100080000002002
:1041A000DC0000003224000894420008DC000020FB
:1041B0009C4F0000422400080000000000000000A6
:1041C00000000000000000000000000000000000EF
:1041D0000100000010000000000000000024F400B6
:1041E00000000000000000000000000000000000CF
:1041F00000000000000000000000000000000000BF
:1042000000000000000000000000000000000000AE
:10421000000000000000000000000000000000009E
:10422000000000000000000000000000000000008E
:10423000000000000000000000000000000000007E
:10424000000000000000000000000000000000006E
:104250000000000000000000AAAAAAAA00000000B6
:10426000000000000000000000000000000000004E
:10427000000000000000000000000000000000003E
:10428000000000000000000000000000000000002E
:04429000000000002A
:04000005080001AD41
:00000001FF
